:020000040000FA
:1000000000008D31B02DFF348A012000911C412861
:10001000031022000D0D2000BD003D08031D122815
:100020001030BD0021008E0122008D0120003D080E
:10003000103A031928283D08203A03192D283D08B5
:10004000403A031932283D08803A031937283B28E3
:100050002100300822008E003B28210031082200B8
:100060008E003B282100320822008E003B28210010
:10007000330822008E0020003D0822008D00200061
:10008000911009002000C001C101C2018030C300ED
:100090007A30B4272000C5007708C400450EF03937
:1000A0002000EB002000440E2000EA000F39EB0492
:1000B000EA060310EA0DEB0D0310EA0DEB0D6A0ED4
:1000C0000F392000C40020006B0E2000C500F0395D
:1000D000C404C50644082000EA0220004508031CA9
:1000E000450A031975282000EB027C30B427200054
:1000F000C5007708C400450EF0392000ED0020004F
:10010000440E2000EC000F39ED04EC060310EC0D5A
:10011000ED0D0310EC0DED0D6C0E0F392000C40039
:1001200020006D0E2000C500F039C404C506440847
:100130002000EC0220004508031C450A0319A228F0
:100140002000ED026A30210099000E308C00220060
:100150008C0121008D0122008D0121008E010430CF
:1001600023008C0021001E169E1723008E010530EF
:1001700020009C00FA309B0021009114723028006E
:1001800097007F30B4272000A7007708A900A800B7
:10019000280C0318CD2828001711031CD12828008B
:1001A0001715FA302800960037309E00FA309D006F
:1001B000C03020008B00093021009D002000931DDD
:1001C000F42888310020803128001719F228FF30E8
:1001D0002100B30003302100B00059302100B200EB
:1001E0002100B100200093112000931C2E2E20002E
:1001F000C00A0319C10A401C43294208F7004308FA
:100200002000A0007708A10021009D1421009D1866
:1002100006291D102000210E0F39A200200EA30078
:10022000F039A204A3060310A30CA20C0310A30C24
:10023000A20C2208A1022308031C230FA002210004
:100240001C082000A200A3012208A400A60121008E
:100250001B082000A200A3012208A6042308A4046E
:100260002608A2002408A3002208A10723080318D7
:10027000230FA0072108F7002008C3007708C20059
:10028000093021009D00200040080F39031D2C2E4D
:100290004208F70043082000A0007708A1002030A2
:1002A000A200A301A401A601210E0F39A500200E72
:1002B000A700F039A504A7060310A70CA50C3F3032
:1002C000A505A7012508A9000310200CA500A7017A
:1002D0000310A70CA50C0310A70CA50C1F302505B7
:1002E000A100A0012108A500250AA1000230F70005
:1002F00021088731DB2781312000A000A7012008D9
:10030000303EA0008E30A10027080318270FA10758
:100310000230F70025088731DB2781312000A70054
:10032000A8012708303EA7008E30A5002808031832
:10033000280FA507A801200029082802031CC329AB
:100340002708F6002508F70080308E31F426813129
:100350002000AB007708AA00AC002B08AD000030ED
:10036000AD1BFF30BF00BE002C08A2072D080318EC
:100370002D0FA3073E0803183E0FA4073F080318DC
:100380003F0FA607E62920002008F6002108F70005
:1003900080308E31F42681312000AB007708AA002E
:1003A000AC002B08AD000030AD1BFF30BF00BE001D
:1003B0002C08A2072D0803182D0FA3073E080318C9
:1003C0003E0FA4073F0803183F0FA6072000A80A06
:1003D00040302802031C9B29220E0F39A100230E56
:1003E000A000F039A104A006240EA500F039A00455
:1003F000A506260EA700F039A504A706F030A71918
:10040000A7040310A71B0314A70CA50CA00CA10C98
:100410000310A71B0314A70CA50CA00CA10C21080A
:10042000A2002008A3002208F7002308C5007708CF
:10043000C4007530B4272000C7007708C600440800
:10044000C8004508C900460848072000EE00200003
:1004500049082000EF00200047080318470A031945
:10046000332A2000EF0720004308C400C5010030F4
:100470004502031D3D2AF83044022000C601031C3A
:1004800046144608003003190130C7004708031D11
:100490005C2A00304502031D4F2A09304402200027
:1004A000C601C60D4608003003190130C4004408D7
:1004B000031D5C2AC4015F2A01302000C400200013
:1004C0004408C600460C0318672A22000C10031CBF
:1004D0006B2A22000C1422000C1C852A11302100EA
:1004E000B000CB302100B100FF302100B20021006C
:1004F000B30022000C128C123C302100AE00AF0180
:100500003C302100AC00AD012C2E7E30B427200001
:10051000C6007708C400C700063047020318BD2B89
:100520002100331320004008C4004108C600C70161
:10053000C8014808803E803E031DA82A00304702BB
:10054000031DA82AEA304602031DA82A603044028F
:10055000031CC22B7E30B4272000AC007708AD000E
:10056000BF0006303F020318B92B7730B4272000B4
:10057000AC007708AD00BE007830B4272000AC0096
:100580007708AD00AD0A0319AC0A09303E02031C1E
:10059000CB2A0830BE001330F70020003F08873117
:1005A000DB2782312000AE0003103E0DBF002E0776
:1005B000BF003F0AAE00B4272000AF007708AE00AE
:1005C00002303F07B000B4272000B1007708B00028
:1005D0002F082C02031DEE2A2E082D02031C1C2BB3
:1005E00020003008F6003108F7007230772720002D
:1005F0003E08083A0319072B03303F07B200B4271F
:100600002000B3007708B2003304031D0E2B063020
:10061000F6000030F7007E307727B92B2000AD01BF
:10062000AC01BE0A3E08B200B3013208F60033083E
:10063000F70077307727B22B7D30B4272000B20047
:100640007708BE0032040319B22B3F08B4272000FC
:10065000BE007708BF002C0EF039B3002D0EB2009B
:100660000F39B304B2060310B20DB30D0310B20D6F
:10067000B30D2030B400B501B601B701B8012000B8
:100680002F083302031D462B2E083202031C672B52
:1006900020002E08B2022F08031C2F0FB3023008CF
:1006A000B9003108BA000030BA1BFF30BC00BB00F3
:1006B0003908B4073A0803183A0FB5073B0803187E
:1006C0003B0FB6073C0803183C0FB7077F2B2000F1
:1006D0003F08B9003E08BA000030BA1BFF30BC002A
:1006E000BB003908B4073A0803183A0FB5073B08AE
:1006F00003183B0FB6073C0803183C0FB707200050
:10070000B80A40303802031C3F2B340E0F39B400B6
:10071000350EB500F039B404B506360EB600F03922
:10072000B504B606370EB700F039B604B706F03098
:10073000B719B7040310B71B0314B70CB60CB50CEC
:10074000B40C0310B71B0314B70CB60CB50CB40CE7
:100750003408BF003508BE003F08F6003E08F70029
:100760007230772720002D08F6002C08F70078302B
:1007700077272000C001C101C22B210033172000C0
:10078000C001C1017630B4272000C6007708C4003C
:1007900046040319322C7230B4272000C8007708B1
:1007A000C70020006E082000C90020006F0820004C
:1007B000CA0047084902C7004808031C480A4A0201
:1007C000C8000314C81F0310031CEB2BC709C8097A
:1007D000C70A0319C80A03142000C61F0310031C0C
:1007E000142CC409C609C40A0319C60A4608803E67
:1007F000CB004808803E4B02031D002C47084402F2
:100800002000C901031C49144908003003190130B4
:10081000CA00C900490C03180F2C22000C10031C3D
:10082000132C22000C14322C20004808803ECB00F0
:100830004608803E4B02031D1F2C4408470220003F
:10084000C901031C49144908003003190130C400D0
:10085000C900490C03182E2C22000C10031C322C4A
:1008600022000C147230B4272000A7007708A900DA
:1008700021002C082D040319412CFF30AC07031C68
:10088000AD0321002E082F0403194A2CFF30AE07B8
:10089000031CAF032000A80122000C1E512C2000D5
:1008A000A80A20002808003003190130AB00A80076
:1008B000280C03185D2C2100B313031C612C2100AC
:1008C000B3172000A80122008C1E682C2000A80A63
:1008D00020002808003003190130AB00A800280CC4
:1008E0000318742C2100B311031C782C2100B315BC
:1008F00022000C1E8C2C20002708803EAA0020001D
:100900006F08803E20002A02031D8A2C20006E08FA
:10091000200029020318B02C22008C1E9E2C2000DF
:100920006F08803E2000AA002708803E2A02031D8F
:100930009C2C290820006E020318B02C20006A08A5
:10094000013A031DA72C6B08003A0319B02C2000B4
:100950006C08013A031D682D6D08003A031D682DCF
:100960007930B4272000AB007708A8002B0EF039AF
:100970002100AD002000280E2100AC000F39AD048D
:10098000AC060310AC0DAD0D0310AC0DAD0D2C0E6F
:100990000F392000A80021002D0E2000AB00F039F7
:1009A000A804AB0628082100AC0220002B08031C79
:1009B0002B0A0319DD2C2100AD027B30B427200067
:1009C000AB007708A8002B0EF0392100AF00200003
:1009D000280E2100AE000F39AF04AE060310AE0D95
:1009E000AF0D0310AE0DAF0D2E0E0F392000A80075
:1009F00021002F0E2000AB00F039A804AB06280818
:100A00002100AE0220002B08031C2B0A03190A2D1B
:100A10002100AF027A30B4272000AB007708A8008D
:100A20002B0EF0392000EB002000280E2000EA00F9
:100A30000F39EB04EA060310EA0DEB0D0310EA0D83
:100A4000EB0D6A0E0F392000A80020006B0E20006D
:100A5000AB00F039A804AB0628082000EA02200009
:100A60002B08031C2B0A0319372D2000EB027C30C6
:100A7000B4272000AB007708A8002B0EF039200027
:100A8000ED002000280E2000EC000F39ED04EC06EC
:100A90000310EC0DED0D0310EC0DED0D6C0E0F3988
:100AA0002000A80020006D0E2000AB00F039A80443
:100AB000AB0628082000EC0220002B08031C2B0AA0
:100AC0000319642D2000ED0222000C128C12FB2D64
:100AD00022000C1AFB2D8C1AFB2D7330B42720003A
:100AE000AB007708A8002908AA002708AC0028084E
:100AF0002A07A9002C08A7002B0803182B0FA7070B
:100B000020006E082000A80020006F082000AB0025
:100B10002702031D8D2D280829020318B82D210056
:100B20002C082D040319AC2D2000A9012100B31FAE
:100B30009B2D2000A90A21002C0801392000A700C4
:100B4000A800A906290C0318A72D2100B313031C24
:100B5000AB2D2100B317FB2D22000C1620006A08D4
:100B60006B040319FB2DFF30EA07031CEB03FB2D7D
:100B70007430B4272000A7007708A900AA0227082C
:100B8000031C270FAC0220006E082000A9002000E3
:100B90006F082000A7002C082702031DD12D2A086A
:100BA00029020318FB2D21002E082F040319F02D14
:100BB0002000A9012100B31DDF2D2000A90A21007A
:100BC0002E0801392000A700A800A906290C031847
:100BD000EB2D2100B311031CEF2D2100B315FB2DCC
:100BE00022008C1620006C086D040319FB2DFF30C9
:100BF000EC07031CED032000991F2C2E2000C401DC
:100C000023001D1F052E2000C40A200044080030C8
:100C100003190130C700C400440C0318112E23002F
:100C20001D13031C152E23001D1722000C1C252E3E
:100C300023001D1F252E61302100B000113021003E
:100C4000B100FF302100B2002C2E0130F600200050
:100C50006E08F7006F083126200093106400DE282C
:100C600008002000A9007708A8007608AB0003144C
:100C7000A91F0310031C452E210033122000A809D0
:100C8000A909A80A0319A90A472E21003316200032
:100C90002B08013A031D502E2100B3123311532E9D
:100CA0002100B316331520002908803E7D3E031D28
:100CB0005B2EE8302802031C6B2E20002808AA00B7
:100CC0002908AC002A08F7002C080E272000A900EC
:100CD0007708A800AB0120002908803E803E031D54
:100CE000732E64302802031CA72E20002808AA00B7
:100CF0002908AC00AD0120002C08803E803E031D79
:100D0000832E64302A02031C8C2E9C302000AA07FC
:100D1000031CAC03AD0A7B2E20002A08A8002C0877
:100D2000A9000F30AD052D08113EAD008F3003181E
:100D3000013EAA002D08F6002A08F70080308E3107
:100D4000E22686312000AC002100B000AA2EFF3040
:100D50002100B00020002908803E803E031DB22EF5
:100D60000A3028020318BF2E20002B08031DBF2EB7
:100D7000210030082000AA00FF3A0319F52E2000B8
:100D80002808AA002908AC00AD0120002C08803EEC
:100D9000803E031DCD2E0A302A02031CD62EF630CB
:100DA0002000AA07031CAC03AD0AC52E20002A08A8
:100DB000A8002C08A9002D08113EAD008F300318A3
:100DC000013EAA002D08F6002A08F70080308E3177
:100DD000E22686312000AC002100B10020002B0863
:100DE0000319F82E21003110F82EFF302100B10038
:100DF00020002808AB00113EA8008F300318013EE8
:100E0000A9002808F6002908F70080308E31E22674
:100E100087312000AB002100B20008002000A000B4
:100E20007708A1000310200CA200210CA3000310DE
:100E3000200CA400210CA6000310A40CA60C26086C
:100E4000A30724080318240FA207230E0F39A600B6
:100E5000220EA400F039A604A4062608A30724083D
:100E60000318240FA2072208A600A4012608A3073E
:100E700024080318240FA2070310A20CA30C0310CC
:100E8000A20CA30C0310A20CA30C0310230DA600AC
:100E9000220DA4000310A60DA40D0310A60DA40D91
:100EA0000310230DA500220DA7002508A60727087B
:100EB0000318270FA4072608A1022408031C240FE7
:100EC000A0020630A1070318A00A210E0F39A600C0
:100ED000200EA400F039A604A4062608A3072408BF
:100EE0000318240FA2072308F70022080800200097
:100EF000A7007708A9007608A8002708B4272000D3
:100F0000AB007708AA002806031D8A2F2B082906A4
:100F10000319B32F03102000270DAA0020002A0870
:100F20002300910020002808230093001513951337
:100F3000151520008B13553023009600AA3096001B
:100F4000951420008B172300151123009518A52F49
:100F50002000121220002908A800A9012A08A700D1
:100F6000AA0A271C8E2F08002000A000A101A201C0
:100F70000310200DA3002000230823009100151367
:100F80009513151413082000A000A4012008A60042
:100F9000A5012208A000A40120082504A10024081E
:100FA0002604A2002308A000A30A201CBB2F2108AE
:100FB000F700220808002000E5007708E600E701B6
:100FC0000830E8002000651CE72F6608E7072000CE
:100FD0006508E9000310690CE5000310660DE900DF
:100FE000E6006808E9006903E8006808031DE22FCD
:100FF00067080800003400343C3400343C340034CA
:1010000020008B1322000D082000DD0021000E08B7
:101010002000DE0022008D01D83021008E00031058
:101020002100380D2000DF00E00120008E1F1A286B
:101030002000E00A20005F08E1006008DF00610492
:101040002100B8000310380D2000DF00E00120006F
:101050000E1E2C282000E00A20005F08E100600836
:10106000DF0061042100B8000310380D2000DF000C
:10107000E00120000E1F3E282000E00A20005F084B
:10108000E1006008DF0061042100B8000310380DA2
:101090002000DF00E00120008E1D50282000E00A23
:1010A00020005F08E1006008DF0061042100B80053
:1010B00020005D0822008D0020005E0821008E00C7
:1010C00020008B1721003708031DB7030F302100C4
:1010D00034020318782C88308A00723034070318E1
:1010E0008A0A82008128D328EB2806292C29042C7F
:1010F000C02B282C342C782C782C5029E9298C2AC8
:10110000F42A8830210038052000DD00083A031D4C
:1011100090281B302100B70006302100B4007A2C43
:1011200000302100380403197A2C7F308731B4272E
:1011300088312000DE007708DD005E0403197A2C78
:101140003330210038052000DD00033A031DAC28B0
:1011500001302100B4007A2C223021003805200013
:10116000DD00023A031DB82802302100B4007A2CB9
:101170001130210038052000DD00013A031DC72889
:101180000D302100B70003302100B4007A2C443028
:10119000210038052000DD00403A031D7A2C07307D
:1011A0002100B4007A2C0030F6006D30F7000030DA
:1011B000863131268831210030102100B3163315D5
:1011C0003330210038052000DD00333A03197A2C32
:1011D0002100B4017A2C72308731B4278831200085
:1011E000DF007708DD000130F6005D08F7005F08DA
:1011F0008631312688312230210038052000DD007B
:10120000223A03197A2C2100B4017A2C7E308731DE
:10121000B42789312000DF007708DD00E0000030CE
:10122000F70060088C240630200060020318212992
:1012300021003708031D21291130B7000430210097
:10124000B4001130210038052000DD00113A0319E7
:101250007A2C2100B4017A2C77308731B427893178
:101260002000DF007708DD000030F6005D08F700A1
:101270005F0886313126893121003708031D452951
:101280000D30B70005302100B400113021003805C1
:101290002000DD00113A03197A2C2100B4017A2CC8
:1012A00021003316B316331506302100350203181A
:1012B00081292100361C632985302100B000D130FE
:1012C0002100B100692961302100B00019302100EE
:1012D000B10003102100360C2000DD00113EDD00BE
:1012E0008F300318013EDF005D08F6005F08F7004D
:1012F00080308E31E22689312000E0002100B200EA
:10130000E2290430F700210036088731DB278931D4
:101310002000DD00DF015D08AE3EDD005F08031840
:101320005F0F8E3EDF005D08F6005F08F70080303B
:101330008E31E22689312000E0002100B000043027
:10134000F700210036088731DB2789312000DD00D6
:10135000DF015D08AE3EDD005F0803185F0F8E3EC3
:10136000DF00DD0A0319DF0A5D08F6005F08F700F9
:1013700080308E31E22689312000E0002100B1006A
:101380000430F700210036088731DB27893120003F
:10139000DD00DF015D08AE3EDD005F0803185F0F72
:1013A0008E3EDF000230DD070318DF0A5D08F6001D
:1013B0005F08F70080308E31E22689312000E0009E
:1013C0002100B2006E302100B7000C302100B400C3
:1013D0007A2C003021003704031DF1292100B401CB
:1013E0007A2C8830210038052000DD00803A031D6A
:1013F000FD2907302100B4007A2C22302100380565
:101400002000DD00203A031D1E2A2100B60A063006
:10141000210035020318132A133021003602031C61
:101420001A2AB6011A2A0D3021003602031C3C2A62
:10143000B6013C2A0B302100B4007A2C1130210077
:1014400038052000DD00103A031D5C2A2100B60398
:101450000630210035020318352A133021003602E8
:10146000031C582A1230B600582A0D3021003602CB
:10147000031C3C2A0C30B6007E308731B4278A31F9
:101480002000DF007708DD00E00006306002031C6A
:10149000582A21003608053A031D512AB60AB60A11
:1014A000582A21003608063A031D582AFE30B6078E
:1014B0000B302100B4007A2C443021003805200084
:1014C000DD00403A031D7A2C1330F7002100350867
:1014D0008731DB278A312000DD002100360820001B
:1014E000DD075D088731B4278A312000E4007708E2
:1014F000E30020005D08F60020006308F7006408A0
:10150000CC242000E4007708E3006E302100B7000F
:101510000D302100B4007A2C06302100350203186A
:10152000A82A2100361C9E2A0030F60020006308FD
:10153000F7006408863131268A31ED2A0130F60041
:1015400020006308F7006408863131268A31ED2ACD
:101550000430F700210036088731DB278A3120006C
:10156000DD00DF015D08AE3EDD005F0803185F0FA0
:101570008E3EDF000330DD070318DF0A5D08F6004A
:101580005F08F70080308E31E2268A312000E000CB
:10159000043060020318D62A0130F60020006308E8
:1015A000F7006408863131268A31ED2A2000600870
:1015B000063A031DE42A200063082000DD00003005
:1015C000F7005D088C24ED2A0030F6002000630847
:1015D000F7006408863131268A316E302100B70069
:1015E0000E302100B4007A2C1330F70021003508AA
:1015F0008731DB278A312000DD00210036082000FA
:10160000DD0721003708031D082B2100B4017A2CC7
:101610008830210038052000DF00803A031D142B9C
:101620000B302100B4007A2C2100B81E2A2B200098
:10163000E30A0319E40A6408803E7D3E031D222B61
:10164000E9306302031C402B09302000E307031834
:10165000E40A402B2100381E572BFF302000E307FF
:10166000031CE4036408803E7D3E031D392BE930F2
:101670006302031C402BF7302000E307031CE40344
:1016800020005D08F60020006308F7006408CC2401
:101690002000E4007708E3001F3028001D02031C2F
:1016A000532BF8309D070D302100B4007A2C4430C4
:1016B000210038052000DF00403A031DBC2B21002B
:1016C0003508063A031DAE2B210036080C3A031DDF
:1016D000AE2B0030F6000030F700773087317727E7
:1016E0008B310030F6000030F700783087317727F3
:1016F0008B3120006408803E803E031D812B063024
:1017000063020318AE2B200063082000DF001330B3
:10171000F7005F088731DB278B312000E00087313D
:10172000B4278B312000E1007708DF00F600610864
:10173000F7007230873177278B312000E00A60088C
:101740008731B4278B312000E0007708DF00600488
:10175000031DAE2B06302000E300E40120006308E7
:10176000F6006408F70020005D08873177278B3189
:101770000B302100B4007A2CFA3028009D007A2C1E
:10178000003021003704031DF92B7F308731B42747
:101790008B312000DF007708DD00E00060080030BA
:1017A00003190130DD00E100E201E11BE203610801
:1017B000F6006208F7007F30873177278B312000F1
:1017C00060080319EC2B22000C100C128C1228005C
:1017D000171120009310F62B3C302100AE00AF0112
:1017E0003C302100AC00AD01280017152100B401E8
:1017F0007A2C8830210038052000DD00883A031952
:101800007A2C2100B4017A2C78308731B4278C31BE
:101810002000E0007708DD000030F6005D08F700EA
:101820006008863131268C3121003708031D1D2CBC
:101830000D30B70003302100B4001130210038050D
:101840002000DD00113A03197A2C2100B4017A2C12
:101850000130F700210035088C246E302100B700DC
:1018600008302100B4007A2C00302100370403191D
:10187000412C8830210038052000DD00803A031D0E
:10188000442C2100B4017A2C22302100380520009C
:10189000DD00203A031D562C2100B50A0730350221
:1018A0000318B50107302100B4007A2C1130210053
:1018B00038052000DD00103A031D6A2C2100B50315
:1018C00007303502031C662C0630B50007302100B6
:1018D000B4007A2C4430210038052000DD00403A65
:1018E000031D7A2C2100B6010B302100B4007A2CA4
:1018F0002100B40121003408003003190130200018
:10190000DD00E000600C0318872C20009913031CF5
:101910008B2C2000991708002000CD007708CC0000
:1019200021003316B3163315B314063020004D02D0
:101930000318B32C19302100B000DD302100B100B4
:1019400020004D08113ECD008F300318013ECF001E
:101950004D08F6004F08F70080308E31E2268C31BA
:101960002100B200CB2C003020004C040319C22C03
:1019700061302100B00009302100B100C9302100E0
:10198000B200CB2CC9302100B000D1302100B10011
:10199000FF302100B20008002000D4007708D300F7
:1019A0007608D500D601D701E730D8000330D9003A
:1019B000723055020318F22C5508DA00133020005B
:1019C0005A02031CE62CED30DA07DE2C20005A18F0
:1019D000682D7030D600FE30D7007830D800053042
:1019E000D900682D8E302000D5070430F700550847
:1019F0008731DB278C312000DA00DB015A08AE3E4C
:101A0000D5008E30DC005B0803185B0FDC07033069
:101A1000D5070318DC0A5508F6005C08F70080308B
:101A20008E31E2268D312000DA005A08031D212D67
:101A30007030D600FE30D7007830D8000530D9009D
:101A4000682D20005A08013A031D2E2DCE30D600F5
:101A5000FF30D7003230D800D901682D20005A0855
:101A6000083A031D372D0130D800D901682D200018
:101A70005A08023A031D402D3230D800D901682D92
:101A800020005A08033A031D4E2D7030D600FE3058
:101A9000D7009030D8000130D900682D20005A08B6
:101AA000043A031D572D0830D800D901682D2000B5
:101AB0005A08053A031D602D3C30D800D901682D25
:101AC00020005A08063A031D682D0630D800D901B7
:101AD00020005808F3005908F4005608F50057088C
:101AE000F6005308F70054087C252000D40077083E
:101AF000D300F700540808002000CD007708CC0080
:101B00007608CF007508CE007408D1007308D000A5
:101B10005108803ED2004D08803E5202031D922D96
:101B20004C0850020318992D20004E08F7004F086A
:101B3000AF2D20004D08803ED2004F08803E52025B
:101B4000031DA42D4E084C020318AB2D2000500895
:101B5000F7005108AF2D20004C08F7004D08080091
:101B60007030F6008E30F70080308E31F4268D31E3
:101B70002100A1007708A0007230A2008E30A300DF
:101B800021002008A4002108A500FF30A007031CA5
:101B9000A1032408250403192D2E04302207A400D4
:101BA000A501A50D2308A5072408F6002508F700C0
:101BB00080308E31F4268D312100A7007708A600F1
:101BC0002208F6002308F70080308E31F4268D318C
:101BD0002100A900A5007708A800A4000230220770
:101BE000A400A501A50D2308A5072408F6002508D3
:101BF000F70080308E31F4268D312100A500AB0036
:101C00007708A400AA0021002608AA002708AB0034
:101C1000FF30A607031CA7032A082B040319272E4D
:101C20002808F6002908F70080308E31E2268E3130
:101C30002100AA0024088400250885002A088000C5
:101C4000A80A0319A90AA40A0319A50A032E063033
:101C50002100A2070318A30AC02D803142280800E2
:101C6000003400341A34FE349D34FE34F234FE3431
:101C70003334FF346934FF349834FF34C334FF34D1
:101C8000EB34FF3410340034333400345534003432
:101C90007734003498340034B8340034D934003404
:101CA000FA3400341C3401343E34013462340134DB
:101CB00087340134AF340134D93401340734023469
:101CC0003934023470340234B0340234FB34023418
:101CD00058340334D134033482340434CA340534E0
:101CE0000A34003403340034B33400340134003493
:101CF000FA3407346E34003402340034FC340734D0
:101D0000AC34003402340034FE340734AE340034D2
:101D1000023400341B340F34B43400340134003442
:101D20001C340F34B5340034013400341D340F3406
:101D3000B6340034013400341E340F34B734003468
:101D4000013400341F340F34B8340034013400340B
:101D500020340F34B9340034013400346134193480
:101D6000FF340034D134A134CD340234D134A13421
:101D7000D1340234C934CD34FF34013461341134E8
:101D8000FF3403346134C934FF3404348534D1342E
:101D9000FF340734CD348534FF340534CD34C934B1
:101DA000FF340734D1348534FF340534D134C93499
:101DB000FF340734DD341934FF340834DD34D534CE
:101DC000FF340634003A0319E92E803A0319EF2E46
:101DD000003476088400770885000008080077083A
:101DE0008A00760882000800003A0319FC2E803A27
:101DF0000319042FF7010034760884007708850062
:101E00001200F700000808008E31EF26F500F60FEB
:101E1000F703F70A8E31EF26F4007508F70074080F
:101E200008000334B7340D342534B13461344134FF
:101E300037340134213400340034003400340034A9
:021E400000346C
:020000040001F9
:02000E00D40F0D
:02001000FF3AB5
:00000001FF
